{
  "_format": "hh-sol-artifact-1",
  "contractName": "RockPaperScissors",
  "sourceName": "src/RockPaperScissors.sol",
  "abi": [
    {
      "inputs": [
        {
          "internalType": "address",
          "name": "_paymentToken",
          "type": "address"
        },
        {
          "internalType": "uint256",
          "name": "_wagerAmount",
          "type": "uint256"
        },
        {
          "internalType": "uint256",
          "name": "_feeAmount",
          "type": "uint256"
        }
      ],
      "stateMutability": "nonpayable",
      "type": "constructor"
    },
    {
      "inputs": [
        {
          "internalType": "address",
          "name": "target",
          "type": "address"
        }
      ],
      "name": "AddressEmptyCode",
      "type": "error"
    },
    {
      "inputs": [
        {
          "internalType": "address",
          "name": "account",
          "type": "address"
        }
      ],
      "name": "AddressInsufficientBalance",
      "type": "error"
    },
    {
      "inputs": [],
      "name": "FailedInnerCall",
      "type": "error"
    },
    {
      "inputs": [
        {
          "internalType": "enum RockPaperScissors.GameState",
          "name": "_state",
          "type": "uint8"
        }
      ],
      "name": "InvalidGameState",
      "type": "error"
    },
    {
      "inputs": [
        {
          "internalType": "address",
          "name": "token",
          "type": "address"
        }
      ],
      "name": "SafeERC20FailedOperation",
      "type": "error"
    },
    {
      "anonymous": false,
      "inputs": [
        {
          "indexed": false,
          "internalType": "uint256",
          "name": "_gameId",
          "type": "uint256"
        },
        {
          "indexed": false,
          "internalType": "enum RockPaperScissors.GameWinner",
          "name": "_winner",
          "type": "uint8"
        }
      ],
      "name": "GameResult",
      "type": "event"
    },
    {
      "anonymous": false,
      "inputs": [
        {
          "indexed": false,
          "internalType": "address",
          "name": "winner",
          "type": "address"
        },
        {
          "indexed": false,
          "internalType": "uint256",
          "name": "amount",
          "type": "uint256"
        }
      ],
      "name": "JackpotWon",
      "type": "event"
    },
    {
      "anonymous": false,
      "inputs": [
        {
          "indexed": false,
          "internalType": "address",
          "name": "player",
          "type": "address"
        },
        {
          "indexed": false,
          "internalType": "uint256",
          "name": "gameId",
          "type": "uint256"
        },
        {
          "indexed": false,
          "internalType": "uint256",
          "name": "wager",
          "type": "uint256"
        },
        {
          "indexed": false,
          "internalType": "uint256",
          "name": "fee",
          "type": "uint256"
        }
      ],
      "name": "MoveCommitted",
      "type": "event"
    },
    {
      "inputs": [],
      "name": "MIN_WAGER_AMOUNT",
      "outputs": [
        {
          "internalType": "uint256",
          "name": "",
          "type": "uint256"
        }
      ],
      "stateMutability": "view",
      "type": "function"
    },
    {
      "inputs": [
        {
          "internalType": "uint256",
          "name": "",
          "type": "uint256"
        }
      ],
      "name": "allPlayers",
      "outputs": [
        {
          "internalType": "address",
          "name": "",
          "type": "address"
        }
      ],
      "stateMutability": "view",
      "type": "function"
    },
    {
      "inputs": [],
      "name": "collectedAmount",
      "outputs": [
        {
          "internalType": "uint256",
          "name": "",
          "type": "uint256"
        }
      ],
      "stateMutability": "view",
      "type": "function"
    },
    {
      "inputs": [
        {
          "internalType": "bytes32",
          "name": "_moveHash",
          "type": "bytes32"
        }
      ],
      "name": "commitMove",
      "outputs": [],
      "stateMutability": "nonpayable",
      "type": "function"
    },
    {
      "inputs": [
        {
          "internalType": "address",
          "name": "",
          "type": "address"
        }
      ],
      "name": "consecutiveWins",
      "outputs": [
        {
          "internalType": "uint256",
          "name": "",
          "type": "uint256"
        }
      ],
      "stateMutability": "view",
      "type": "function"
    },
    {
      "inputs": [],
      "name": "feePercentage",
      "outputs": [
        {
          "internalType": "uint256",
          "name": "",
          "type": "uint256"
        }
      ],
      "stateMutability": "view",
      "type": "function"
    },
    {
      "inputs": [],
      "name": "gameCounter",
      "outputs": [
        {
          "internalType": "uint256",
          "name": "",
          "type": "uint256"
        }
      ],
      "stateMutability": "view",
      "type": "function"
    },
    {
      "inputs": [
        {
          "internalType": "uint256",
          "name": "",
          "type": "uint256"
        }
      ],
      "name": "games",
      "outputs": [
        {
          "internalType": "enum RockPaperScissors.GameState",
          "name": "state",
          "type": "uint8"
        },
        {
          "components": [
            {
              "internalType": "address",
              "name": "addr",
              "type": "address"
            },
            {
              "internalType": "bytes32",
              "name": "moveHash",
              "type": "bytes32"
            },
            {
              "internalType": "enum RockPaperScissors.Move",
              "name": "move",
              "type": "uint8"
            }
          ],
          "internalType": "struct RockPaperScissors.Player",
          "name": "player1",
          "type": "tuple"
        },
        {
          "components": [
            {
              "internalType": "address",
              "name": "addr",
              "type": "address"
            },
            {
              "internalType": "bytes32",
              "name": "moveHash",
              "type": "bytes32"
            },
            {
              "internalType": "enum RockPaperScissors.Move",
              "name": "move",
              "type": "uint8"
            }
          ],
          "internalType": "struct RockPaperScissors.Player",
          "name": "player2",
          "type": "tuple"
        },
        {
          "internalType": "enum RockPaperScissors.GameWinner",
          "name": "result",
          "type": "uint8"
        },
        {
          "internalType": "uint256",
          "name": "wager",
          "type": "uint256"
        }
      ],
      "stateMutability": "view",
      "type": "function"
    },
    {
      "inputs": [
        {
          "internalType": "uint256",
          "name": "_gameId",
          "type": "uint256"
        }
      ],
      "name": "getGameInfo",
      "outputs": [
        {
          "components": [
            {
              "internalType": "enum RockPaperScissors.GameState",
              "name": "state",
              "type": "uint8"
            },
            {
              "components": [
                {
                  "internalType": "address",
                  "name": "addr",
                  "type": "address"
                },
                {
                  "internalType": "bytes32",
                  "name": "moveHash",
                  "type": "bytes32"
                },
                {
                  "internalType": "enum RockPaperScissors.Move",
                  "name": "move",
                  "type": "uint8"
                }
              ],
              "internalType": "struct RockPaperScissors.Player",
              "name": "player1",
              "type": "tuple"
            },
            {
              "components": [
                {
                  "internalType": "address",
                  "name": "addr",
                  "type": "address"
                },
                {
                  "internalType": "bytes32",
                  "name": "moveHash",
                  "type": "bytes32"
                },
                {
                  "internalType": "enum RockPaperScissors.Move",
                  "name": "move",
                  "type": "uint8"
                }
              ],
              "internalType": "struct RockPaperScissors.Player",
              "name": "player2",
              "type": "tuple"
            },
            {
              "internalType": "enum RockPaperScissors.GameWinner",
              "name": "result",
              "type": "uint8"
            },
            {
              "internalType": "uint256",
              "name": "wager",
              "type": "uint256"
            }
          ],
          "internalType": "struct RockPaperScissors.Game",
          "name": "",
          "type": "tuple"
        }
      ],
      "stateMutability": "view",
      "type": "function"
    },
    {
      "inputs": [],
      "name": "getLeaderboard",
      "outputs": [
        {
          "internalType": "address[]",
          "name": "leaderboard",
          "type": "address[]"
        },
        {
          "internalType": "uint256[]",
          "name": "wins",
          "type": "uint256[]"
        }
      ],
      "stateMutability": "view",
      "type": "function"
    },
    {
      "inputs": [
        {
          "internalType": "uint256",
          "name": "_gameId",
          "type": "uint256"
        },
        {
          "internalType": "uint256",
          "name": "_playerIndex",
          "type": "uint256"
        }
      ],
      "name": "getPlayerInfoForGame",
      "outputs": [
        {
          "components": [
            {
              "internalType": "address",
              "name": "addr",
              "type": "address"
            },
            {
              "internalType": "bytes32",
              "name": "moveHash",
              "type": "bytes32"
            },
            {
              "internalType": "enum RockPaperScissors.Move",
              "name": "move",
              "type": "uint8"
            }
          ],
          "internalType": "struct RockPaperScissors.Player",
          "name": "",
          "type": "tuple"
        }
      ],
      "stateMutability": "view",
      "type": "function"
    },
    {
      "inputs": [
        {
          "internalType": "enum RockPaperScissors.Move",
          "name": "_move",
          "type": "uint8"
        },
        {
          "internalType": "string",
          "name": "_nonce",
          "type": "string"
        }
      ],
      "name": "hashMove",
      "outputs": [
        {
          "internalType": "bytes32",
          "name": "",
          "type": "bytes32"
        }
      ],
      "stateMutability": "pure",
      "type": "function"
    },
    {
      "inputs": [],
      "name": "minConsecutiveWins",
      "outputs": [
        {
          "internalType": "uint256",
          "name": "",
          "type": "uint256"
        }
      ],
      "stateMutability": "view",
      "type": "function"
    },
    {
      "inputs": [],
      "name": "minJackpotAmount",
      "outputs": [
        {
          "internalType": "uint256",
          "name": "",
          "type": "uint256"
        }
      ],
      "stateMutability": "view",
      "type": "function"
    },
    {
      "inputs": [],
      "name": "numberOfPlayers",
      "outputs": [
        {
          "internalType": "uint256",
          "name": "",
          "type": "uint256"
        }
      ],
      "stateMutability": "view",
      "type": "function"
    },
    {
      "inputs": [],
      "name": "paymentToken",
      "outputs": [
        {
          "internalType": "contract IERC20",
          "name": "",
          "type": "address"
        }
      ],
      "stateMutability": "view",
      "type": "function"
    },
    {
      "inputs": [
        {
          "internalType": "address",
          "name": "",
          "type": "address"
        }
      ],
      "name": "playerLastGame",
      "outputs": [
        {
          "internalType": "uint256",
          "name": "",
          "type": "uint256"
        }
      ],
      "stateMutability": "view",
      "type": "function"
    },
    {
      "inputs": [
        {
          "internalType": "enum RockPaperScissors.Move",
          "name": "_move",
          "type": "uint8"
        },
        {
          "internalType": "string",
          "name": "_nonce",
          "type": "string"
        }
      ],
      "name": "revealMoveForLastGame",
      "outputs": [],
      "stateMutability": "nonpayable",
      "type": "function"
    },
    {
      "inputs": [],
      "name": "wagerAmount",
      "outputs": [
        {
          "internalType": "uint256",
          "name": "",
          "type": "uint256"
        }
      ],
      "stateMutability": "view",
      "type": "function"
    }
  ],
  "bytecode": "0x60806040523480156200001157600080fd5b50604051620037ae380380620037ae833981810160405281019062000037919062000171565b826000806101000a81548173ffffffffffffffffffffffffffffffffffffffff021916908373ffffffffffffffffffffffffffffffffffffffff160217905550600082036200008557600191505b816001819055506063811115620000a4576063600281905550620000ac565b806002819055505b6001546064620000bd9190620001fc565b60048190555050505062000247565b600080fd5b600073ffffffffffffffffffffffffffffffffffffffff82169050919050565b6000620000fe82620000d1565b9050919050565b6200011081620000f1565b81146200011c57600080fd5b50565b600081519050620001308162000105565b92915050565b6000819050919050565b6200014b8162000136565b81146200015757600080fd5b50565b6000815190506200016b8162000140565b92915050565b6000806000606084860312156200018d576200018c620000cc565b5b60006200019d868287016200011f565b9350506020620001b0868287016200015a565b9250506040620001c3868287016200015a565b9150509250925092565b7f4e487b7100000000000000000000000000000000000000000000000000000000600052601160045260246000fd5b6000620002098262000136565b9150620002168362000136565b9250828202620002268162000136565b9150828204841483151762000240576200023f620001cd565b5b5092915050565b61355780620002576000396000f3fe608060405234801561001057600080fd5b50600436106101215760003560e01c80636d763a6e116100ad578063a9ea37b611610071578063a9ea37b614610327578063c9dd508514610343578063d27ad52414610361578063eef17d5c1461037f578063fdcbe4b6146103af57610121565b80636d763a6e146102905780636f4bda17146102af578063802c6ee5146102cd5780638c3db2f5146102eb578063a001ecdd1461030957610121565b80632b33107b116100f45780632b33107b146101d65780632e0be39a146102065780633013ce291461022457806347e1d5501461024257806349de47041461027257610121565b80630544ce5e14610126578063117a5b9014610156578063143af9071461018a57806321b875d7146101ba575b600080fd5b610140600480360381019061013b9190612433565b6103df565b60405161014d91906124a1565b60405180910390f35b610170600480360381019061016b9190612433565b610412565b60405161018195949392919061263c565b60405180910390f35b6101a4600480360381019061019f91906126bd565b6105ac565b6040516101b191906126ea565b60405180910390f35b6101d460048036038101906101cf9190612870565b6105c4565b005b6101f060048036038101906101eb9190612870565b610cd5565b6040516101fd91906128db565b60405180910390f35b61020e610d08565b60405161021b91906126ea565b60405180910390f35b61022c610d0e565b6040516102399190612955565b60405180910390f35b61025c60048036038101906102579190612433565b610d32565b6040516102699190612a49565b60405180910390f35b61027a610f3d565b60405161028791906126ea565b60405180910390f35b610298610f43565b6040516102a6929190612bc3565b60405180910390f35b6102b7611201565b6040516102c491906126ea565b60405180910390f35b6102d5611207565b6040516102e291906126ea565b60405180910390f35b6102f361120d565b60405161030091906126ea565b60405180910390f35b610311611213565b60405161031e91906126ea565b60405180910390f35b610341600480360381019061033c9190612c26565b611219565b005b61034b61154d565b60405161035891906126ea565b60405180910390f35b610369611553565b60405161037691906126ea565b60405180910390f35b61039960048036038101906103949190612c53565b611558565b6040516103a69190612c93565b60405180910390f35b6103c960048036038101906103c491906126bd565b6116f0565b6040516103d691906126ea565b60405180910390f35b600a6020528060005260406000206000915054906101000a900473ffffffffffffffffffffffffffffffffffffffff1681565b60066020528060005260406000206000915090508060000160009054906101000a900460ff1690806001016040518060600160405290816000820160009054906101000a900473ffffffffffffffffffffffffffffffffffffffff1673ffffffffffffffffffffffffffffffffffffffff1673ffffffffffffffffffffffffffffffffffffffff168152602001600182015481526020016002820160009054906101000a900460ff1660038111156104cd576104cc6124bc565b5b60038111156104df576104de6124bc565b5b8152505090806004016040518060600160405290816000820160009054906101000a900473ffffffffffffffffffffffffffffffffffffffff1673ffffffffffffffffffffffffffffffffffffffff1673ffffffffffffffffffffffffffffffffffffffff168152602001600182015481526020016002820160009054906101000a900460ff166003811115610578576105776124bc565b5b600381111561058a576105896124bc565b5b81525050908060070160009054906101000a900460ff16908060080154905085565b600b6020528060005260406000206000915090505481565b6000600860003373ffffffffffffffffffffffffffffffffffffffff1673ffffffffffffffffffffffffffffffffffffffff1681526020019081526020016000205403610646576040517f08c379a000000000000000000000000000000000000000000000000000000000815260040161063d90612d0b565b60405180910390fd5b600060066000600860003373ffffffffffffffffffffffffffffffffffffffff1673ffffffffffffffffffffffffffffffffffffffff16815260200190815260200160002054815260200190815260200160002060000160009054906101000a900460ff169050600060066000600860003373ffffffffffffffffffffffffffffffffffffffff1673ffffffffffffffffffffffffffffffffffffffff16815260200190815260200160002054815260200190815260200160002060010160000160009054906101000a900473ffffffffffffffffffffffffffffffffffffffff169050600060066000600860003373ffffffffffffffffffffffffffffffffffffffff1673ffffffffffffffffffffffffffffffffffffffff16815260200190815260200160002054815260200190815260200160002060040160000160009054906101000a900473ffffffffffffffffffffffffffffffffffffffff1690503373ffffffffffffffffffffffffffffffffffffffff168273ffffffffffffffffffffffffffffffffffffffff16148061080c57503373ffffffffffffffffffffffffffffffffffffffff168173ffffffffffffffffffffffffffffffffffffffff16145b61084b576040517f08c379a000000000000000000000000000000000000000000000000000000000815260040161084290612d77565b60405180910390fd5b6000600381111561085f5761085e6124bc565b5b856003811115610872576108716124bc565b5b036108b2576040517f08c379a00000000000000000000000000000000000000000000000000000000081526004016108a990612de3565b60405180910390fd5b6000600860003373ffffffffffffffffffffffffffffffffffffffff1673ffffffffffffffffffffffffffffffffffffffff1681526020019081526020016000205490506000868660405160200161090b929190612eaa565b6040516020818303038152906040528051906020012090506006600083815260200190815260200160002060010160000160009054906101000a900473ffffffffffffffffffffffffffffffffffffffff1673ffffffffffffffffffffffffffffffffffffffff163373ffffffffffffffffffffffffffffffffffffffff1603610a3057600660008381526020019081526020016000206001016001015481146109ea576040517f08c379a00000000000000000000000000000000000000000000000000000000081526004016109e190612f1e565b60405180910390fd5b866006600084815260200190815260200160002060010160020160006101000a81548160ff02191690836003811115610a2657610a256124bc565b5b0217905550610acd565b60066000838152602001908152602001600020600401600101548114610a8b576040517f08c379a0000000000000000000000000000000000000000000000000000000008152600401610a8290612f1e565b60405180910390fd5b866006600084815260200190815260200160002060040160020160006101000a81548160ff02191690836003811115610ac757610ac66124bc565b5b02179055505b60026004811115610ae157610ae06124bc565b5b856004811115610af457610af36124bc565b5b03610b3d5760036006600084815260200190815260200160002060000160006101000a81548160ff02191690836004811115610b3357610b326124bc565b5b0217905550610ccc565b60046006600084815260200190815260200160002060000160006101000a81548160ff02191690836004811115610b7757610b766124bc565b5b02179055506000610bd46006600085815260200190815260200160002060010160020160009054906101000a900460ff166006600086815260200190815260200160002060040160020160009054906101000a900460ff16611708565b9050806006600085815260200190815260200160002060070160006101000a81548160ff02191690836003811115610c0f57610c0e6124bc565b5b0217905550610c916006600085815260200190815260200160002060010160000160009054906101000a900473ffffffffffffffffffffffffffffffffffffffff166006600086815260200190815260200160002060040160000160009054906101000a900473ffffffffffffffffffffffffffffffffffffffff168361186c565b7f36b2d7f009047b0bafdd214517cde657f4dc1bc0a293ea0e7ccc0942a7019ee78382604051610cc2929190612f3e565b60405180910390a1505b50505050505050565b60008282604051602001610cea929190612eaa565b60405160208183030381529060405280519060200120905092915050565b60075481565b60008054906101000a900473ffffffffffffffffffffffffffffffffffffffff1681565b610d3a61233e565b600660008381526020019081526020016000206040518060a00160405290816000820160009054906101000a900460ff166004811115610d7d57610d7c6124bc565b5b6004811115610d8f57610d8e6124bc565b5b8152602001600182016040518060600160405290816000820160009054906101000a900473ffffffffffffffffffffffffffffffffffffffff1673ffffffffffffffffffffffffffffffffffffffff1673ffffffffffffffffffffffffffffffffffffffff168152602001600182015481526020016002820160009054906101000a900460ff166003811115610e2857610e276124bc565b5b6003811115610e3a57610e396124bc565b5b815250508152602001600482016040518060600160405290816000820160009054906101000a900473ffffffffffffffffffffffffffffffffffffffff1673ffffffffffffffffffffffffffffffffffffffff1673ffffffffffffffffffffffffffffffffffffffff168152602001600182015481526020016002820160009054906101000a900460ff166003811115610ed757610ed66124bc565b5b6003811115610ee957610ee86124bc565b5b8152505081526020016007820160009054906101000a900460ff166003811115610f1657610f156124bc565b5b6003811115610f2857610f276124bc565b5b81526020016008820154815250509050919050565b60015481565b60608060095467ffffffffffffffff811115610f6257610f61612745565b5b604051908082528060200260200182016040528015610f905781602001602082028036833780820191505090505b50915060095467ffffffffffffffff811115610faf57610fae612745565b5b604051908082528060200260200182016040528015610fdd5781602001602082028036833780820191505090505b509050600080600080600090505b6009548110156111f957600a600082815260200190815260200160002060009054906101000a900473ffffffffffffffffffffffffffffffffffffffff169350600b60008573ffffffffffffffffffffffffffffffffffffffff1673ffffffffffffffffffffffffffffffffffffffff1681526020019081526020016000205492508091505b6000821180156110a65750828560018461108b9190612f96565b8151811061109c5761109b612fca565b5b6020026020010151105b1561117857846001836110b99190612f96565b815181106110ca576110c9612fca565b5b60200260200101518583815181106110e5576110e4612fca565b5b602002602001018181525050856001836110ff9190612f96565b815181106111105761110f612fca565b5b602002602001015186838151811061112b5761112a612fca565b5b602002602001019073ffffffffffffffffffffffffffffffffffffffff16908173ffffffffffffffffffffffffffffffffffffffff1681525050818061117090612ff9565b925050611071565b8285838151811061118c5761118b612fca565b5b602002602001018181525050838683815181106111ac576111ab612fca565b5b602002602001019073ffffffffffffffffffffffffffffffffffffffff16908173ffffffffffffffffffffffffffffffffffffffff168152505080806111f190613022565b915050610feb565b505050509091565b60095481565b60035481565b60055481565b60025481565b60015460008054906101000a900473ffffffffffffffffffffffffffffffffffffffff1673ffffffffffffffffffffffffffffffffffffffff166370a08231336040518263ffffffff1660e01b815260040161127591906124a1565b602060405180830381865afa158015611292573d6000803e3d6000fd5b505050506040513d601f19601f820116820180604052508101906112b6919061307f565b10156112f7576040517f08c379a00000000000000000000000000000000000000000000000000000000081526004016112ee906130f8565b60405180910390fd5b60015460008054906101000a900473ffffffffffffffffffffffffffffffffffffffff1673ffffffffffffffffffffffffffffffffffffffff1663dd62ed3e33306040518363ffffffff1660e01b8152600401611355929190613118565b602060405180830381865afa158015611372573d6000803e3d6000fd5b505050506040513d601f19601f82011682018060405250810190611396919061307f565b10156113d7576040517f08c379a00000000000000000000000000000000000000000000000000000000081526004016113ce9061318d565b60405180910390fd5b6000801b810361141c576040517f08c379a0000000000000000000000000000000000000000000000000000000008152600401611413906131f9565b60405180910390fd5b600061142782611a00565b9050611478333060015460008054906101000a900473ffffffffffffffffffffffffffffffffffffffff1673ffffffffffffffffffffffffffffffffffffffff1661206e909392919063ffffffff16565b6000670de0b6b3a7640000662386f26fc10000600254606461149a9190612f96565b6001546114a79190613219565b6114b19190613219565b6114bb919061328a565b9050806001546114cb9190612f96565b600360008282546114dc91906132bb565b925050819055508060066000848152602001908152602001600020600801819055507f242a59f35256a54557fbc5738fe347a0249ac057dc8026dc6edfa83fd3e1233a338383846001546115309190612f96565b60405161154094939291906132ef565b60405180910390a1505050565b60045481565b600181565b61156061239d565b6000820361162b57600660008481526020019081526020016000206001016040518060600160405290816000820160009054906101000a900473ffffffffffffffffffffffffffffffffffffffff1673ffffffffffffffffffffffffffffffffffffffff1673ffffffffffffffffffffffffffffffffffffffff168152602001600182015481526020016002820160009054906101000a900460ff16600381111561160e5761160d6124bc565b5b60038111156116205761161f6124bc565b5b8152505090506116ea565b600660008481526020019081526020016000206004016040518060600160405290816000820160009054906101000a900473ffffffffffffffffffffffffffffffffffffffff1673ffffffffffffffffffffffffffffffffffffffff1673ffffffffffffffffffffffffffffffffffffffff168152602001600182015481526020016002820160009054906101000a900460ff1660038111156116d1576116d06124bc565b5b60038111156116e3576116e26124bc565b5b8152505090505b92915050565b60086020528060005260406000206000915090505481565b600081600381111561171d5761171c6124bc565b5b8360038111156117305761172f6124bc565b5b0361173e5760039050611866565b60016003811115611752576117516124bc565b5b836003811115611765576117646124bc565b5b14801561179557506003808111156117805761177f6124bc565b5b826003811115611793576117926124bc565b5b145b806117f357506003808111156117ae576117ad6124bc565b5b8360038111156117c1576117c06124bc565b5b1480156117f25750600260038111156117dd576117dc6124bc565b5b8260038111156117f0576117ef6124bc565b5b145b5b8061185257506002600381111561180d5761180c6124bc565b5b8360038111156118205761181f6124bc565b5b14801561185157506001600381111561183c5761183b6124bc565b5b82600381111561184f5761184e6124bc565b5b145b5b156118605760019050611865565b600290505b5b92915050565b600160038111156118805761187f6124bc565b5b816003811115611893576118926124bc565b5b0361193557600b60008473ffffffffffffffffffffffffffffffffffffffff1673ffffffffffffffffffffffffffffffffffffffff168152602001908152602001600020600081546118e490613022565b919050819055506000600b60008473ffffffffffffffffffffffffffffffffffffffff1673ffffffffffffffffffffffffffffffffffffffff168152602001908152602001600020819055506119fb565b60026003811115611949576119486124bc565b5b81600381111561195c5761195b6124bc565b5b036119fa576000600b60008573ffffffffffffffffffffffffffffffffffffffff1673ffffffffffffffffffffffffffffffffffffffff16815260200190815260200160002081905550600b60008373ffffffffffffffffffffffffffffffffffffffff1673ffffffffffffffffffffffffffffffffffffffff168152602001908152602001600020600081546119f290613022565b919050819055505b5b505050565b6000806000600754118015611a5e575060026004811115611a2457611a236124bc565b5b60066000600754815260200190815260200160002060000160009054906101000a900460ff166004811115611a5c57611a5b6124bc565b5b105b15611a6d576007549050611a85565b600760008154611a7c90613022565b91905081905590505b60006006600083815260200190815260200160002060010160000160009054906101000a900473ffffffffffffffffffffffffffffffffffffffff16905060006006600084815260200190815260200160002060040160000160009054906101000a900473ffffffffffffffffffffffffffffffffffffffff16905082600860003373ffffffffffffffffffffffffffffffffffffffff1673ffffffffffffffffffffffffffffffffffffffff1681526020019081526020016000205403611b82576040517f08c379a0000000000000000000000000000000000000000000000000000000008152600401611b7990613380565b60405180910390fd5b3373ffffffffffffffffffffffffffffffffffffffff168273ffffffffffffffffffffffffffffffffffffffff16141580611be957503373ffffffffffffffffffffffffffffffffffffffff168173ffffffffffffffffffffffffffffffffffffffff1614155b611c28576040517f08c379a0000000000000000000000000000000000000000000000000000000008152600401611c1f906133ec565b60405180910390fd5b6000600860003373ffffffffffffffffffffffffffffffffffffffff1673ffffffffffffffffffffffffffffffffffffffff1681526020019081526020016000205403611cd85733600a600060096000815480929190611c8790613022565b91905055815260200190815260200160002060006101000a81548173ffffffffffffffffffffffffffffffffffffffff021916908373ffffffffffffffffffffffffffffffffffffffff1602179055505b82600860003373ffffffffffffffffffffffffffffffffffffffff1673ffffffffffffffffffffffffffffffffffffffff16815260200190815260200160002081905550600073ffffffffffffffffffffffffffffffffffffffff168273ffffffffffffffffffffffffffffffffffffffff1614158015611d855750600073ffffffffffffffffffffffffffffffffffffffff168173ffffffffffffffffffffffffffffffffffffffff16145b15611eac5760405180606001604052803373ffffffffffffffffffffffffffffffffffffffff16815260200186815260200160006003811115611dcb57611dca6124bc565b5b8152506006600085815260200190815260200160002060040160008201518160000160006101000a81548173ffffffffffffffffffffffffffffffffffffffff021916908373ffffffffffffffffffffffffffffffffffffffff1602179055506020820151816001015560408201518160020160006101000a81548160ff02191690836003811115611e6057611e5f6124bc565b5b021790555090505060026006600085815260200190815260200160002060000160006101000a81548160ff02191690836004811115611ea257611ea16124bc565b5b0217905550612063565b600073ffffffffffffffffffffffffffffffffffffffff168273ffffffffffffffffffffffffffffffffffffffff16036120025760405180606001604052803373ffffffffffffffffffffffffffffffffffffffff16815260200186815260200160006003811115611f2157611f206124bc565b5b8152506006600085815260200190815260200160002060010160008201518160000160006101000a81548173ffffffffffffffffffffffffffffffffffffffff021916908373ffffffffffffffffffffffffffffffffffffffff1602179055506020820151816001015560408201518160020160006101000a81548160ff02191690836003811115611fb657611fb56124bc565b5b021790555090505060016006600085815260200190815260200160002060000160006101000a81548160ff02191690836004811115611ff857611ff76124bc565b5b0217905550612062565b6006600084815260200190815260200160002060000160009054906101000a900460ff166040517fd7e90704000000000000000000000000000000000000000000000000000000008152600401612059919061340c565b60405180910390fd5b5b829350505050919050565b6120ea848573ffffffffffffffffffffffffffffffffffffffff166323b872dd8686866040516024016120a393929190613427565b604051602081830303815290604052915060e01b6020820180517bffffffffffffffffffffffffffffffffffffffffffffffffffffffff83818316178352505050506120f0565b50505050565b600061211b828473ffffffffffffffffffffffffffffffffffffffff1661218790919063ffffffff16565b9050600081511415801561214057508080602001905181019061213e9190613496565b155b1561218257826040517f5274afe700000000000000000000000000000000000000000000000000000000815260040161217991906124a1565b60405180910390fd5b505050565b60606121958383600061219d565b905092915050565b6060814710156121e457306040517fcd7860590000000000000000000000000000000000000000000000000000000081526004016121db91906124a1565b60405180910390fd5b6000808573ffffffffffffffffffffffffffffffffffffffff16848660405161220d919061350a565b60006040518083038185875af1925050503d806000811461224a576040519150601f19603f3d011682016040523d82523d6000602084013e61224f565b606091505b509150915061225f86838361226a565b925050509392505050565b60608261227f5761227a826122f9565b6122f1565b600082511480156122a7575060008473ffffffffffffffffffffffffffffffffffffffff163b145b156122e957836040517f9996b3150000000000000000000000000000000000000000000000000000000081526004016122e091906124a1565b60405180910390fd5b8190506122f2565b5b9392505050565b60008151111561230c5780518082602001fd5b6040517f1425ea4200000000000000000000000000000000000000000000000000000000815260040160405180910390fd5b6040518060a001604052806000600481111561235d5761235c6124bc565b5b815260200161236a61239d565b815260200161237761239d565b8152602001600060038111156123905761238f6124bc565b5b8152602001600081525090565b6040518060600160405280600073ffffffffffffffffffffffffffffffffffffffff16815260200160008019168152602001600060038111156123e3576123e26124bc565b5b81525090565b6000604051905090565b600080fd5b600080fd5b6000819050919050565b612410816123fd565b811461241b57600080fd5b50565b60008135905061242d81612407565b92915050565b600060208284031215612449576124486123f3565b5b60006124578482850161241e565b91505092915050565b600073ffffffffffffffffffffffffffffffffffffffff82169050919050565b600061248b82612460565b9050919050565b61249b81612480565b82525050565b60006020820190506124b66000830184612492565b92915050565b7f4e487b7100000000000000000000000000000000000000000000000000000000600052602160045260246000fd5b600581106124fc576124fb6124bc565b5b50565b600081905061250d826124eb565b919050565b600061251d826124ff565b9050919050565b61252d81612512565b82525050565b61253c81612480565b82525050565b6000819050919050565b61255581612542565b82525050565b6004811061256c5761256b6124bc565b5b50565b600081905061257d8261255b565b919050565b600061258d8261256f565b9050919050565b61259d81612582565b82525050565b6060820160008201516125b96000850182612533565b5060208201516125cc602085018261254c565b5060408201516125df6040850182612594565b50505050565b600481106125f6576125f56124bc565b5b50565b6000819050612607826125e5565b919050565b6000612617826125f9565b9050919050565b6126278161260c565b82525050565b612636816123fd565b82525050565b6000610120820190506126526000830188612524565b61265f60208301876125a3565b61266c60808301866125a3565b61267960e083018561261e565b61268761010083018461262d565b9695505050505050565b61269a81612480565b81146126a557600080fd5b50565b6000813590506126b781612691565b92915050565b6000602082840312156126d3576126d26123f3565b5b60006126e1848285016126a8565b91505092915050565b60006020820190506126ff600083018461262d565b92915050565b6004811061271257600080fd5b50565b60008135905061272481612705565b92915050565b600080fd5b600080fd5b6000601f19601f8301169050919050565b7f4e487b7100000000000000000000000000000000000000000000000000000000600052604160045260246000fd5b61277d82612734565b810181811067ffffffffffffffff8211171561279c5761279b612745565b5b80604052505050565b60006127af6123e9565b90506127bb8282612774565b919050565b600067ffffffffffffffff8211156127db576127da612745565b5b6127e482612734565b9050602081019050919050565b82818337600083830152505050565b600061281361280e846127c0565b6127a5565b90508281526020810184848401111561282f5761282e61272f565b5b61283a8482856127f1565b509392505050565b600082601f8301126128575761285661272a565b5b8135612867848260208601612800565b91505092915050565b60008060408385031215612887576128866123f3565b5b600061289585828601612715565b925050602083013567ffffffffffffffff8111156128b6576128b56123f8565b5b6128c285828601612842565b9150509250929050565b6128d581612542565b82525050565b60006020820190506128f060008301846128cc565b92915050565b6000819050919050565b600061291b61291661291184612460565b6128f6565b612460565b9050919050565b600061292d82612900565b9050919050565b600061293f82612922565b9050919050565b61294f81612934565b82525050565b600060208201905061296a6000830184612946565b92915050565b61297981612512565b82525050565b6060820160008201516129956000850182612533565b5060208201516129a8602085018261254c565b5060408201516129bb6040850182612594565b50505050565b6129ca8161260c565b82525050565b6129d9816123fd565b82525050565b610120820160008201516129f66000850182612970565b506020820151612a09602085018261297f565b506040820151612a1c608085018261297f565b506060820151612a2f60e08501826129c1565b506080820151612a436101008501826129d0565b50505050565b600061012082019050612a5f60008301846129df565b92915050565b600081519050919050565b600082825260208201905092915050565b6000819050602082019050919050565b6000612a9d8383612533565b60208301905092915050565b6000602082019050919050565b6000612ac182612a65565b612acb8185612a70565b9350612ad683612a81565b8060005b83811015612b07578151612aee8882612a91565b9750612af983612aa9565b925050600181019050612ada565b5085935050505092915050565b600081519050919050565b600082825260208201905092915050565b6000819050602082019050919050565b6000612b4c83836129d0565b60208301905092915050565b6000602082019050919050565b6000612b7082612b14565b612b7a8185612b1f565b9350612b8583612b30565b8060005b83811015612bb6578151612b9d8882612b40565b9750612ba883612b58565b925050600181019050612b89565b5085935050505092915050565b60006040820190508181036000830152612bdd8185612ab6565b90508181036020830152612bf18184612b65565b90509392505050565b612c0381612542565b8114612c0e57600080fd5b50565b600081359050612c2081612bfa565b92915050565b600060208284031215612c3c57612c3b6123f3565b5b6000612c4a84828501612c11565b91505092915050565b60008060408385031215612c6a57612c696123f3565b5b6000612c788582860161241e565b9250506020612c898582860161241e565b9150509250929050565b6000606082019050612ca860008301846125a3565b92915050565b600082825260208201905092915050565b7f4e6f2067616d6520746f2072657665616c000000000000000000000000000000600082015250565b6000612cf5601183612cae565b9150612d0082612cbf565b602082019050919050565b60006020820190508181036000830152612d2481612ce8565b9050919050565b7f4e6f7420696e2072657665616c20706861736500000000000000000000000000600082015250565b6000612d61601383612cae565b9150612d6c82612d2b565b602082019050919050565b60006020820190508181036000830152612d9081612d54565b9050919050565b7f496e76616c6964206d6f76650000000000000000000000000000000000000000600082015250565b6000612dcd600c83612cae565b9150612dd882612d97565b602082019050919050565b60006020820190508181036000830152612dfc81612dc0565b9050919050565b60008160f81b9050919050565b6000612e1b82612e03565b9050919050565b612e33612e2e82612582565b612e10565b82525050565b600081519050919050565b600081905092915050565b60005b83811015612e6d578082015181840152602081019050612e52565b60008484015250505050565b6000612e8482612e39565b612e8e8185612e44565b9350612e9e818560208601612e4f565b80840191505092915050565b6000612eb68285612e22565b600182019150612ec68284612e79565b91508190509392505050565b7f48617368206d69736d6174636800000000000000000000000000000000000000600082015250565b6000612f08600d83612cae565b9150612f1382612ed2565b602082019050919050565b60006020820190508181036000830152612f3781612efb565b9050919050565b6000604082019050612f53600083018561262d565b612f60602083018461261e565b9392505050565b7f4e487b7100000000000000000000000000000000000000000000000000000000600052601160045260246000fd5b6000612fa1826123fd565b9150612fac836123fd565b9250828203905081811115612fc457612fc3612f67565b5b92915050565b7f4e487b7100000000000000000000000000000000000000000000000000000000600052603260045260246000fd5b6000613004826123fd565b91506000820361301757613016612f67565b5b600182039050919050565b600061302d826123fd565b91507fffffffffffffffffffffffffffffffffffffffffffffffffffffffffffffffff820361305f5761305e612f67565b5b600182019050919050565b60008151905061307981612407565b92915050565b600060208284031215613095576130946123f3565b5b60006130a38482850161306a565b91505092915050565b7f496e73756666696369656e742066756e647320746f20706c6179000000000000600082015250565b60006130e2601a83612cae565b91506130ed826130ac565b602082019050919050565b60006020820190508181036000830152613111816130d5565b9050919050565b600060408201905061312d6000830185612492565b61313a6020830184612492565b9392505050565b7f496e73756666696369656e7420616c6c6f77616e636500000000000000000000600082015250565b6000613177601683612cae565b915061318282613141565b602082019050919050565b600060208201905081810360008301526131a68161316a565b9050919050565b7f496e76616c6964206d6f76652068617368000000000000000000000000000000600082015250565b60006131e3601183612cae565b91506131ee826131ad565b602082019050919050565b60006020820190508181036000830152613212816131d6565b9050919050565b6000613224826123fd565b915061322f836123fd565b925082820261323d816123fd565b9150828204841483151761325457613253612f67565b5b5092915050565b7f4e487b7100000000000000000000000000000000000000000000000000000000600052601260045260246000fd5b6000613295826123fd565b91506132a0836123fd565b9250826132b0576132af61325b565b5b828204905092915050565b60006132c6826123fd565b91506132d1836123fd565b92508282019050808211156132e9576132e8612f67565b5b92915050565b60006080820190506133046000830187612492565b613311602083018661262d565b61331e604083018561262d565b61332b606083018461262d565b95945050505050565b7f416c726561647920706c61796564000000000000000000000000000000000000600082015250565b600061336a600e83612cae565b915061337582613334565b602082019050919050565b600060208201905081810360008301526133998161335d565b9050919050565b7f506c6179657220616c726561647920706c617965640000000000000000000000600082015250565b60006133d6601583612cae565b91506133e1826133a0565b602082019050919050565b60006020820190508181036000830152613405816133c9565b9050919050565b60006020820190506134216000830184612524565b92915050565b600060608201905061343c6000830186612492565b6134496020830185612492565b613456604083018461262d565b949350505050565b60008115159050919050565b6134738161345e565b811461347e57600080fd5b50565b6000815190506134908161346a565b92915050565b6000602082840312156134ac576134ab6123f3565b5b60006134ba84828501613481565b91505092915050565b600081519050919050565b600081905092915050565b60006134e4826134c3565b6134ee81856134ce565b93506134fe818560208601612e4f565b80840191505092915050565b600061351682846134d9565b91508190509291505056fea26469706673582212202a2b0c0230ff0388b91f5b4dee24791fc13f24d6ff04bd104aaecc9b0ff5e9e064736f6c63430008140033",
  "linkReferences": {},
  "deployedLinkReferences": {}
}