{
  "_format": "hh-sol-artifact-1",
  "contractName": "RockPaperScissors",
  "sourceName": "src/RockPaperScissors.sol",
  "abi": [
    {
      "inputs": [
        {
          "internalType": "address",
          "name": "_paymentToken",
          "type": "address"
        },
        {
          "internalType": "uint256",
          "name": "_wagerAmount",
          "type": "uint256"
        },
        {
          "internalType": "uint256",
          "name": "_feeAmount",
          "type": "uint256"
        },
        {
          "internalType": "uint256",
          "name": "_minConsecutiveWins",
          "type": "uint256"
        },
        {
          "internalType": "uint256",
          "name": "_minJackpotAmount",
          "type": "uint256"
        }
      ],
      "stateMutability": "nonpayable",
      "type": "constructor"
    },
    {
      "inputs": [
        {
          "internalType": "address",
          "name": "target",
          "type": "address"
        }
      ],
      "name": "AddressEmptyCode",
      "type": "error"
    },
    {
      "inputs": [
        {
          "internalType": "address",
          "name": "account",
          "type": "address"
        }
      ],
      "name": "AddressInsufficientBalance",
      "type": "error"
    },
    {
      "inputs": [],
      "name": "FailedInnerCall",
      "type": "error"
    },
    {
      "inputs": [
        {
          "internalType": "enum RockPaperScissors.GameState",
          "name": "_state",
          "type": "uint8"
        }
      ],
      "name": "InvalidGameState",
      "type": "error"
    },
    {
      "inputs": [],
      "name": "ReentrancyGuardReentrantCall",
      "type": "error"
    },
    {
      "inputs": [
        {
          "internalType": "address",
          "name": "token",
          "type": "address"
        }
      ],
      "name": "SafeERC20FailedOperation",
      "type": "error"
    },
    {
      "anonymous": false,
      "inputs": [
        {
          "indexed": false,
          "internalType": "uint256",
          "name": "_gameId",
          "type": "uint256"
        },
        {
          "indexed": false,
          "internalType": "enum RockPaperScissors.GameWinner",
          "name": "_winner",
          "type": "uint8"
        }
      ],
      "name": "GameResult",
      "type": "event"
    },
    {
      "anonymous": false,
      "inputs": [
        {
          "indexed": false,
          "internalType": "address",
          "name": "winner",
          "type": "address"
        },
        {
          "indexed": false,
          "internalType": "uint256",
          "name": "amount",
          "type": "uint256"
        }
      ],
      "name": "JackpotWon",
      "type": "event"
    },
    {
      "anonymous": false,
      "inputs": [
        {
          "indexed": false,
          "internalType": "address",
          "name": "player",
          "type": "address"
        },
        {
          "indexed": false,
          "internalType": "uint256",
          "name": "gameId",
          "type": "uint256"
        },
        {
          "indexed": false,
          "internalType": "uint256",
          "name": "wager",
          "type": "uint256"
        },
        {
          "indexed": false,
          "internalType": "uint256",
          "name": "fee",
          "type": "uint256"
        }
      ],
      "name": "MoveCommitted",
      "type": "event"
    },
    {
      "inputs": [],
      "name": "MIN_WAGER_AMOUNT",
      "outputs": [
        {
          "internalType": "uint256",
          "name": "",
          "type": "uint256"
        }
      ],
      "stateMutability": "view",
      "type": "function"
    },
    {
      "inputs": [
        {
          "internalType": "uint256",
          "name": "",
          "type": "uint256"
        }
      ],
      "name": "allPlayers",
      "outputs": [
        {
          "internalType": "address",
          "name": "",
          "type": "address"
        }
      ],
      "stateMutability": "view",
      "type": "function"
    },
    {
      "inputs": [],
      "name": "collectedAmount",
      "outputs": [
        {
          "internalType": "uint256",
          "name": "",
          "type": "uint256"
        }
      ],
      "stateMutability": "view",
      "type": "function"
    },
    {
      "inputs": [
        {
          "internalType": "bytes32",
          "name": "_moveHash",
          "type": "bytes32"
        }
      ],
      "name": "commitMove",
      "outputs": [],
      "stateMutability": "nonpayable",
      "type": "function"
    },
    {
      "inputs": [
        {
          "internalType": "address",
          "name": "",
          "type": "address"
        }
      ],
      "name": "consecutiveWins",
      "outputs": [
        {
          "internalType": "uint256",
          "name": "",
          "type": "uint256"
        }
      ],
      "stateMutability": "view",
      "type": "function"
    },
    {
      "inputs": [],
      "name": "feePercentage",
      "outputs": [
        {
          "internalType": "uint256",
          "name": "",
          "type": "uint256"
        }
      ],
      "stateMutability": "view",
      "type": "function"
    },
    {
      "inputs": [],
      "name": "gameCounter",
      "outputs": [
        {
          "internalType": "uint256",
          "name": "",
          "type": "uint256"
        }
      ],
      "stateMutability": "view",
      "type": "function"
    },
    {
      "inputs": [
        {
          "internalType": "uint256",
          "name": "",
          "type": "uint256"
        }
      ],
      "name": "games",
      "outputs": [
        {
          "internalType": "enum RockPaperScissors.GameState",
          "name": "state",
          "type": "uint8"
        },
        {
          "components": [
            {
              "internalType": "address",
              "name": "addr",
              "type": "address"
            },
            {
              "internalType": "bytes32",
              "name": "moveHash",
              "type": "bytes32"
            },
            {
              "internalType": "enum RockPaperScissors.Move",
              "name": "move",
              "type": "uint8"
            }
          ],
          "internalType": "struct RockPaperScissors.Player",
          "name": "player1",
          "type": "tuple"
        },
        {
          "components": [
            {
              "internalType": "address",
              "name": "addr",
              "type": "address"
            },
            {
              "internalType": "bytes32",
              "name": "moveHash",
              "type": "bytes32"
            },
            {
              "internalType": "enum RockPaperScissors.Move",
              "name": "move",
              "type": "uint8"
            }
          ],
          "internalType": "struct RockPaperScissors.Player",
          "name": "player2",
          "type": "tuple"
        },
        {
          "internalType": "enum RockPaperScissors.GameWinner",
          "name": "result",
          "type": "uint8"
        },
        {
          "internalType": "uint256",
          "name": "wager",
          "type": "uint256"
        }
      ],
      "stateMutability": "view",
      "type": "function"
    },
    {
      "inputs": [
        {
          "internalType": "uint256",
          "name": "_gameId",
          "type": "uint256"
        }
      ],
      "name": "getGameInfo",
      "outputs": [
        {
          "components": [
            {
              "internalType": "enum RockPaperScissors.GameState",
              "name": "state",
              "type": "uint8"
            },
            {
              "components": [
                {
                  "internalType": "address",
                  "name": "addr",
                  "type": "address"
                },
                {
                  "internalType": "bytes32",
                  "name": "moveHash",
                  "type": "bytes32"
                },
                {
                  "internalType": "enum RockPaperScissors.Move",
                  "name": "move",
                  "type": "uint8"
                }
              ],
              "internalType": "struct RockPaperScissors.Player",
              "name": "player1",
              "type": "tuple"
            },
            {
              "components": [
                {
                  "internalType": "address",
                  "name": "addr",
                  "type": "address"
                },
                {
                  "internalType": "bytes32",
                  "name": "moveHash",
                  "type": "bytes32"
                },
                {
                  "internalType": "enum RockPaperScissors.Move",
                  "name": "move",
                  "type": "uint8"
                }
              ],
              "internalType": "struct RockPaperScissors.Player",
              "name": "player2",
              "type": "tuple"
            },
            {
              "internalType": "enum RockPaperScissors.GameWinner",
              "name": "result",
              "type": "uint8"
            },
            {
              "internalType": "uint256",
              "name": "wager",
              "type": "uint256"
            }
          ],
          "internalType": "struct RockPaperScissors.Game",
          "name": "",
          "type": "tuple"
        }
      ],
      "stateMutability": "view",
      "type": "function"
    },
    {
      "inputs": [],
      "name": "getLeaderboard",
      "outputs": [
        {
          "internalType": "address[]",
          "name": "leaderboard",
          "type": "address[]"
        },
        {
          "internalType": "uint256[]",
          "name": "wins",
          "type": "uint256[]"
        }
      ],
      "stateMutability": "view",
      "type": "function"
    },
    {
      "inputs": [
        {
          "internalType": "uint256",
          "name": "_gameId",
          "type": "uint256"
        },
        {
          "internalType": "uint256",
          "name": "_playerIndex",
          "type": "uint256"
        }
      ],
      "name": "getPlayerInfoForGame",
      "outputs": [
        {
          "components": [
            {
              "internalType": "address",
              "name": "addr",
              "type": "address"
            },
            {
              "internalType": "bytes32",
              "name": "moveHash",
              "type": "bytes32"
            },
            {
              "internalType": "enum RockPaperScissors.Move",
              "name": "move",
              "type": "uint8"
            }
          ],
          "internalType": "struct RockPaperScissors.Player",
          "name": "",
          "type": "tuple"
        }
      ],
      "stateMutability": "view",
      "type": "function"
    },
    {
      "inputs": [
        {
          "internalType": "uint256",
          "name": "_gameId",
          "type": "uint256"
        }
      ],
      "name": "getWinner",
      "outputs": [
        {
          "internalType": "uint256",
          "name": "",
          "type": "uint256"
        }
      ],
      "stateMutability": "view",
      "type": "function"
    },
    {
      "inputs": [
        {
          "internalType": "enum RockPaperScissors.Move",
          "name": "_move",
          "type": "uint8"
        },
        {
          "internalType": "string",
          "name": "_nonce",
          "type": "string"
        }
      ],
      "name": "hashMove",
      "outputs": [
        {
          "internalType": "bytes32",
          "name": "",
          "type": "bytes32"
        }
      ],
      "stateMutability": "pure",
      "type": "function"
    },
    {
      "inputs": [],
      "name": "minConsecutiveWins",
      "outputs": [
        {
          "internalType": "uint256",
          "name": "",
          "type": "uint256"
        }
      ],
      "stateMutability": "view",
      "type": "function"
    },
    {
      "inputs": [],
      "name": "minJackpotAmount",
      "outputs": [
        {
          "internalType": "uint256",
          "name": "",
          "type": "uint256"
        }
      ],
      "stateMutability": "view",
      "type": "function"
    },
    {
      "inputs": [],
      "name": "numberOfPlayers",
      "outputs": [
        {
          "internalType": "uint256",
          "name": "",
          "type": "uint256"
        }
      ],
      "stateMutability": "view",
      "type": "function"
    },
    {
      "inputs": [],
      "name": "paymentToken",
      "outputs": [
        {
          "internalType": "contract IERC20",
          "name": "",
          "type": "address"
        }
      ],
      "stateMutability": "view",
      "type": "function"
    },
    {
      "inputs": [
        {
          "internalType": "address",
          "name": "",
          "type": "address"
        }
      ],
      "name": "playerLastGame",
      "outputs": [
        {
          "internalType": "uint256",
          "name": "",
          "type": "uint256"
        }
      ],
      "stateMutability": "view",
      "type": "function"
    },
    {
      "inputs": [
        {
          "internalType": "uint256",
          "name": "_gameId",
          "type": "uint256"
        },
        {
          "internalType": "enum RockPaperScissors.Move",
          "name": "_move",
          "type": "uint8"
        },
        {
          "internalType": "string",
          "name": "_nonce",
          "type": "string"
        }
      ],
      "name": "revealMoveForGame",
      "outputs": [],
      "stateMutability": "nonpayable",
      "type": "function"
    },
    {
      "inputs": [
        {
          "internalType": "enum RockPaperScissors.Move",
          "name": "_move",
          "type": "uint8"
        },
        {
          "internalType": "string",
          "name": "_nonce",
          "type": "string"
        }
      ],
      "name": "revealMoveForLastGame",
      "outputs": [],
      "stateMutability": "nonpayable",
      "type": "function"
    },
    {
      "inputs": [],
      "name": "wagerAmount",
      "outputs": [
        {
          "internalType": "uint256",
          "name": "",
          "type": "uint256"
        }
      ],
      "stateMutability": "view",
      "type": "function"
    }
  ],
  "bytecode": "0x60806040523480156200001157600080fd5b5060405162003ac638038062003ac6833981810160405281019062000037919062000173565b600160008190555084600160006101000a81548173ffffffffffffffffffffffffffffffffffffffff021916908373ffffffffffffffffffffffffffffffffffffffff160217905550600084036200008e57600193505b836002819055506063831115620000ad576063600381905550620000b5565b826003819055505b81600681905550806005819055505050505050620001fb565b600080fd5b600073ffffffffffffffffffffffffffffffffffffffff82169050919050565b60006200010082620000d3565b9050919050565b6200011281620000f3565b81146200011e57600080fd5b50565b600081519050620001328162000107565b92915050565b6000819050919050565b6200014d8162000138565b81146200015957600080fd5b50565b6000815190506200016d8162000142565b92915050565b600080600080600060a08688031215620001925762000191620000ce565b5b6000620001a28882890162000121565b9550506020620001b5888289016200015c565b9450506040620001c8888289016200015c565b9350506060620001db888289016200015c565b9250506080620001ee888289016200015c565b9150509295509295909350565b6138bb806200020b6000396000f3fe608060405234801561001057600080fd5b50600436106101375760003560e01c80636d763a6e116100b8578063a001ecdd1161007c578063a001ecdd1461036b578063a9ea37b614610389578063c9dd5085146103a5578063d27ad524146103c3578063eef17d5c146103e1578063fdcbe4b61461041157610137565b80636d763a6e146102d65780636f4bda17146102f5578063802c6ee5146103135780638c3db2f5146103315780639a7935991461034f57610137565b80632e0be39a116100ff5780632e0be39a1461021c5780633013ce291461023a5780634129b2c91461025857806347e1d5501461028857806349de4704146102b857610137565b80630544ce5e1461013c578063117a5b901461016c578063143af907146101a057806321b875d7146101d05780632b33107b146101ec575b600080fd5b610156600480360381019061015191906126ff565b610441565b604051610163919061276d565b60405180910390f35b610186600480360381019061018191906126ff565b610474565b604051610197959493929190612908565b60405180910390f35b6101ba60048036038101906101b59190612989565b61060e565b6040516101c791906129b6565b60405180910390f35b6101ea60048036038101906101e59190612b3c565b610626565b005b61020660048036038101906102019190612b3c565b610684565b6040516102139190612ba7565b60405180910390f35b6102246106b7565b60405161023191906129b6565b60405180910390f35b6102426106bd565b60405161024f9190612c21565b60405180910390f35b610272600480360381019061026d91906126ff565b6106e3565b60405161027f91906129b6565b60405180910390f35b6102a2600480360381019061029d91906126ff565b610722565b6040516102af9190612d15565b60405180910390f35b6102c061092d565b6040516102cd91906129b6565b60405180910390f35b6102de610933565b6040516102ec929190612e8f565b60405180910390f35b6102fd610bf1565b60405161030a91906129b6565b60405180910390f35b61031b610bf7565b60405161032891906129b6565b60405180910390f35b610339610bfd565b60405161034691906129b6565b60405180910390f35b61036960048036038101906103649190612ec6565b610c03565b005b610373610c23565b60405161038091906129b6565b60405180910390f35b6103a3600480360381019061039e9190612f61565b610c29565b005b6103ad610f73565b6040516103ba91906129b6565b60405180910390f35b6103cb610f79565b6040516103d891906129b6565b60405180910390f35b6103fb60048036038101906103f69190612f8e565b610f7e565b6040516104089190612fce565b60405180910390f35b61042b60048036038101906104269190612989565b611116565b60405161043891906129b6565b60405180910390f35b600b6020528060005260406000206000915054906101000a900473ffffffffffffffffffffffffffffffffffffffff1681565b60076020528060005260406000206000915090508060000160009054906101000a900460ff1690806001016040518060600160405290816000820160009054906101000a900473ffffffffffffffffffffffffffffffffffffffff1673ffffffffffffffffffffffffffffffffffffffff1673ffffffffffffffffffffffffffffffffffffffff168152602001600182015481526020016002820160009054906101000a900460ff16600381111561052f5761052e612788565b5b600381111561054157610540612788565b5b8152505090806004016040518060600160405290816000820160009054906101000a900473ffffffffffffffffffffffffffffffffffffffff1673ffffffffffffffffffffffffffffffffffffffff1673ffffffffffffffffffffffffffffffffffffffff168152602001600182015481526020016002820160009054906101000a900460ff1660038111156105da576105d9612788565b5b60038111156105ec576105eb612788565b5b81525050908060070160009054906101000a900460ff16908060080154905085565b600c6020528060005260406000206000915090505481565b61062e61112e565b610678600960003373ffffffffffffffffffffffffffffffffffffffff1673ffffffffffffffffffffffffffffffffffffffff168152602001908152602001600020548383611174565b6106806116d6565b5050565b60008282604051602001610699929190613090565b60405160208183030381529060405280519060200120905092915050565b60085481565b600160009054906101000a900473ffffffffffffffffffffffffffffffffffffffff1681565b60006007600083815260200190815260200160002060070160009054906101000a900460ff16600381111561071b5761071a612788565b5b9050919050565b61072a61260a565b600760008381526020019081526020016000206040518060a00160405290816000820160009054906101000a900460ff16600481111561076d5761076c612788565b5b600481111561077f5761077e612788565b5b8152602001600182016040518060600160405290816000820160009054906101000a900473ffffffffffffffffffffffffffffffffffffffff1673ffffffffffffffffffffffffffffffffffffffff1673ffffffffffffffffffffffffffffffffffffffff168152602001600182015481526020016002820160009054906101000a900460ff16600381111561081857610817612788565b5b600381111561082a57610829612788565b5b815250508152602001600482016040518060600160405290816000820160009054906101000a900473ffffffffffffffffffffffffffffffffffffffff1673ffffffffffffffffffffffffffffffffffffffff1673ffffffffffffffffffffffffffffffffffffffff168152602001600182015481526020016002820160009054906101000a900460ff1660038111156108c7576108c6612788565b5b60038111156108d9576108d8612788565b5b8152505081526020016007820160009054906101000a900460ff16600381111561090657610905612788565b5b600381111561091857610917612788565b5b81526020016008820154815250509050919050565b60025481565b606080600a5467ffffffffffffffff81111561095257610951612a11565b5b6040519080825280602002602001820160405280156109805781602001602082028036833780820191505090505b509150600a5467ffffffffffffffff81111561099f5761099e612a11565b5b6040519080825280602002602001820160405280156109cd5781602001602082028036833780820191505090505b509050600080600080600090505b600a54811015610be957600b600082815260200190815260200160002060009054906101000a900473ffffffffffffffffffffffffffffffffffffffff169350600c60008573ffffffffffffffffffffffffffffffffffffffff1673ffffffffffffffffffffffffffffffffffffffff1681526020019081526020016000205492508091505b600082118015610a9657508285600184610a7b91906130e7565b81518110610a8c57610a8b61311b565b5b6020026020010151105b15610b685784600183610aa991906130e7565b81518110610aba57610ab961311b565b5b6020026020010151858381518110610ad557610ad461311b565b5b60200260200101818152505085600183610aef91906130e7565b81518110610b0057610aff61311b565b5b6020026020010151868381518110610b1b57610b1a61311b565b5b602002602001019073ffffffffffffffffffffffffffffffffffffffff16908173ffffffffffffffffffffffffffffffffffffffff16815250508180610b609061314a565b925050610a61565b82858381518110610b7c57610b7b61311b565b5b60200260200101818152505083868381518110610b9c57610b9b61311b565b5b602002602001019073ffffffffffffffffffffffffffffffffffffffff16908173ffffffffffffffffffffffffffffffffffffffff16815250508080610be190613173565b9150506109db565b505050509091565b600a5481565b60045481565b60065481565b610c0b61112e565b610c16838383611174565b610c1e6116d6565b505050565b60035481565b610c3161112e565b600254600160009054906101000a900473ffffffffffffffffffffffffffffffffffffffff1673ffffffffffffffffffffffffffffffffffffffff166370a08231336040518263ffffffff1660e01b8152600401610c8f919061276d565b602060405180830381865afa158015610cac573d6000803e3d6000fd5b505050506040513d601f19601f82011682018060405250810190610cd091906131d0565b1015610d11576040517f08c379a0000000000000000000000000000000000000000000000000000000008152600401610d089061325a565b60405180910390fd5b600254600160009054906101000a900473ffffffffffffffffffffffffffffffffffffffff1673ffffffffffffffffffffffffffffffffffffffff1663dd62ed3e33306040518363ffffffff1660e01b8152600401610d7192919061327a565b602060405180830381865afa158015610d8e573d6000803e3d6000fd5b505050506040513d601f19601f82011682018060405250810190610db291906131d0565b1015610df3576040517f08c379a0000000000000000000000000000000000000000000000000000000008152600401610dea906132ef565b60405180910390fd5b6000801b8103610e38576040517f08c379a0000000000000000000000000000000000000000000000000000000008152600401610e2f9061335b565b60405180910390fd5b6000610e43826116e0565b9050610e963330600254600160009054906101000a900473ffffffffffffffffffffffffffffffffffffffff1673ffffffffffffffffffffffffffffffffffffffff16611cd6909392919063ffffffff16565b6000670de0b6b3a7640000662386f26fc100006003546064610eb891906130e7565b600254610ec5919061337b565b610ecf919061337b565b610ed991906133ec565b905080600254610ee991906130e7565b60046000828254610efa919061341d565b925050819055508060076000848152602001908152602001600020600801819055507f242a59f35256a54557fbc5738fe347a0249ac057dc8026dc6edfa83fd3e1233a33838384600254610f4e91906130e7565b604051610f5e9493929190613451565b60405180910390a15050610f706116d6565b50565b60055481565b600181565b610f86612669565b6000820361105157600760008481526020019081526020016000206001016040518060600160405290816000820160009054906101000a900473ffffffffffffffffffffffffffffffffffffffff1673ffffffffffffffffffffffffffffffffffffffff1673ffffffffffffffffffffffffffffffffffffffff168152602001600182015481526020016002820160009054906101000a900460ff16600381111561103457611033612788565b5b600381111561104657611045612788565b5b815250509050611110565b600760008481526020019081526020016000206004016040518060600160405290816000820160009054906101000a900473ffffffffffffffffffffffffffffffffffffffff1673ffffffffffffffffffffffffffffffffffffffff1673ffffffffffffffffffffffffffffffffffffffff168152602001600182015481526020016002820160009054906101000a900460ff1660038111156110f7576110f6612788565b5b600381111561110957611108612788565b5b8152505090505b92915050565b60096020528060005260406000206000915090505481565b60026000540361116a576040517f3ee5aeb500000000000000000000000000000000000000000000000000000000815260040160405180910390fd5b6002600081905550565b60006007600085815260200190815260200160002060000160009054906101000a900460ff16905060006007600086815260200190815260200160002060010160000160009054906101000a900473ffffffffffffffffffffffffffffffffffffffff16905060006007600087815260200190815260200160002060040160000160009054906101000a900473ffffffffffffffffffffffffffffffffffffffff1690503373ffffffffffffffffffffffffffffffffffffffff168273ffffffffffffffffffffffffffffffffffffffff16148061127d57503373ffffffffffffffffffffffffffffffffffffffff168173ffffffffffffffffffffffffffffffffffffffff16145b6112bc576040517f08c379a00000000000000000000000000000000000000000000000000000000081526004016112b3906134e2565b60405180910390fd5b600060038111156112d0576112cf612788565b5b8560038111156112e3576112e2612788565b5b03611323576040517f08c379a000000000000000000000000000000000000000000000000000000000815260040161131a9061354e565b60405180910390fd5b6002600481111561133757611336612788565b5b83600481111561134a57611349612788565b5b101561138b576040517f08c379a0000000000000000000000000000000000000000000000000000000008152600401611382906135ba565b60405180910390fd5b600085856040516020016113a0929190613090565b6040516020818303038152906040528051906020012090508273ffffffffffffffffffffffffffffffffffffffff163373ffffffffffffffffffffffffffffffffffffffff160361148c5760076000888152602001908152602001600020600101600101548114611446576040517f08c379a000000000000000000000000000000000000000000000000000000000815260040161143d90613626565b60405180910390fd5b856007600089815260200190815260200160002060010160020160006101000a81548160ff0219169083600381111561148257611481612788565b5b0217905550611529565b600760008881526020019081526020016000206004016001015481146114e7576040517f08c379a00000000000000000000000000000000000000000000000000000000081526004016114de90613626565b60405180910390fd5b856007600089815260200190815260200160002060040160020160006101000a81548160ff0219169083600381111561152357611522612788565b5b02179055505b6002600481111561153d5761153c612788565b5b8460048111156115505761154f612788565b5b036115995760036007600089815260200190815260200160002060000160006101000a81548160ff0219169083600481111561158f5761158e612788565b5b02179055506116cd565b60046007600089815260200190815260200160002060000160006101000a81548160ff021916908360048111156115d3576115d2612788565b5b02179055506000611630600760008a815260200190815260200160002060010160020160009054906101000a900460ff16600760008b815260200190815260200160002060040160020160009054906101000a900460ff16611d58565b905080600760008a815260200190815260200160002060070160006101000a81548160ff0219169083600381111561166b5761166a612788565b5b0217905550611692848483600760008d815260200190815260200160002060080154611ebc565b7f36b2d7f009047b0bafdd214517cde657f4dc1bc0a293ea0e7ccc0942a7019ee788826040516116c3929190613646565b60405180910390a1505b50505050505050565b6001600081905550565b6000806116eb6121b4565b905080600960003373ffffffffffffffffffffffffffffffffffffffff1673ffffffffffffffffffffffffffffffffffffffff168152602001908152602001600020540361176e576040517f08c379a0000000000000000000000000000000000000000000000000000000008152600401611765906136bb565b60405180910390fd5b60006007600083815260200190815260200160002060010160000160009054906101000a900473ffffffffffffffffffffffffffffffffffffffff16905060006007600084815260200190815260200160002060040160000160009054906101000a900473ffffffffffffffffffffffffffffffffffffffff1690503373ffffffffffffffffffffffffffffffffffffffff168273ffffffffffffffffffffffffffffffffffffffff1614158061185157503373ffffffffffffffffffffffffffffffffffffffff168173ffffffffffffffffffffffffffffffffffffffff1614155b611890576040517f08c379a000000000000000000000000000000000000000000000000000000000815260040161188790613727565b60405180910390fd5b6000600960003373ffffffffffffffffffffffffffffffffffffffff1673ffffffffffffffffffffffffffffffffffffffff16815260200190815260200160002054036119405733600b6000600a60008154809291906118ef90613173565b91905055815260200190815260200160002060006101000a81548173ffffffffffffffffffffffffffffffffffffffff021916908373ffffffffffffffffffffffffffffffffffffffff1602179055505b82600960003373ffffffffffffffffffffffffffffffffffffffff1673ffffffffffffffffffffffffffffffffffffffff16815260200190815260200160002081905550600073ffffffffffffffffffffffffffffffffffffffff168273ffffffffffffffffffffffffffffffffffffffff16141580156119ed5750600073ffffffffffffffffffffffffffffffffffffffff168173ffffffffffffffffffffffffffffffffffffffff16145b15611b145760405180606001604052803373ffffffffffffffffffffffffffffffffffffffff16815260200186815260200160006003811115611a3357611a32612788565b5b8152506007600085815260200190815260200160002060040160008201518160000160006101000a81548173ffffffffffffffffffffffffffffffffffffffff021916908373ffffffffffffffffffffffffffffffffffffffff1602179055506020820151816001015560408201518160020160006101000a81548160ff02191690836003811115611ac857611ac7612788565b5b021790555090505060026007600085815260200190815260200160002060000160006101000a81548160ff02191690836004811115611b0a57611b09612788565b5b0217905550611ccb565b600073ffffffffffffffffffffffffffffffffffffffff168273ffffffffffffffffffffffffffffffffffffffff1603611c6a5760405180606001604052803373ffffffffffffffffffffffffffffffffffffffff16815260200186815260200160006003811115611b8957611b88612788565b5b8152506007600085815260200190815260200160002060010160008201518160000160006101000a81548173ffffffffffffffffffffffffffffffffffffffff021916908373ffffffffffffffffffffffffffffffffffffffff1602179055506020820151816001015560408201518160020160006101000a81548160ff02191690836003811115611c1e57611c1d612788565b5b021790555090505060016007600085815260200190815260200160002060000160006101000a81548160ff02191690836004811115611c6057611c5f612788565b5b0217905550611cca565b6007600084815260200190815260200160002060000160009054906101000a900460ff166040517fd7e90704000000000000000000000000000000000000000000000000000000008152600401611cc19190613747565b60405180910390fd5b5b829350505050919050565b611d52848573ffffffffffffffffffffffffffffffffffffffff166323b872dd868686604051602401611d0b93929190613762565b604051602081830303815290604052915060e01b6020820180517bffffffffffffffffffffffffffffffffffffffffffffffffffffffff838183161783525050505061223a565b50505050565b6000816003811115611d6d57611d6c612788565b5b836003811115611d8057611d7f612788565b5b03611d8e5760039050611eb6565b60016003811115611da257611da1612788565b5b836003811115611db557611db4612788565b5b148015611de55750600380811115611dd057611dcf612788565b5b826003811115611de357611de2612788565b5b145b80611e435750600380811115611dfe57611dfd612788565b5b836003811115611e1157611e10612788565b5b148015611e42575060026003811115611e2d57611e2c612788565b5b826003811115611e4057611e3f612788565b5b145b5b80611ea2575060026003811115611e5d57611e5c612788565b5b836003811115611e7057611e6f612788565b5b148015611ea1575060016003811115611e8c57611e8b612788565b5b826003811115611e9f57611e9e612788565b5b145b5b15611eb05760019050611eb5565b600290505b5b92915050565b60016003811115611ed057611ecf612788565b5b826003811115611ee357611ee2612788565b5b03611fe757600c60008573ffffffffffffffffffffffffffffffffffffffff1673ffffffffffffffffffffffffffffffffffffffff16815260200190815260200160002060008154611f3490613173565b919050819055506000600c60008573ffffffffffffffffffffffffffffffffffffffff1673ffffffffffffffffffffffffffffffffffffffff16815260200190815260200160002081905550611fd984826002611f91919061337b565b600160009054906101000a900473ffffffffffffffffffffffffffffffffffffffff1673ffffffffffffffffffffffffffffffffffffffff166122d19092919063ffffffff16565b611fe284612350565b6121ae565b60026003811115611ffb57611ffa612788565b5b82600381111561200e5761200d612788565b5b03612112576000600c60008673ffffffffffffffffffffffffffffffffffffffff1673ffffffffffffffffffffffffffffffffffffffff16815260200190815260200160002081905550600c60008473ffffffffffffffffffffffffffffffffffffffff1673ffffffffffffffffffffffffffffffffffffffff168152602001908152602001600020600081546120a490613173565b91905081905550612104838260026120bc919061337b565b600160009054906101000a900473ffffffffffffffffffffffffffffffffffffffff1673ffffffffffffffffffffffffffffffffffffffff166122d19092919063ffffffff16565b61210d84612350565b6121ad565b61215f8482600160009054906101000a900473ffffffffffffffffffffffffffffffffffffffff1673ffffffffffffffffffffffffffffffffffffffff166122d19092919063ffffffff16565b6121ac8382600160009054906101000a900473ffffffffffffffffffffffffffffffffffffffff1673ffffffffffffffffffffffffffffffffffffffff166122d19092919063ffffffff16565b5b5b50505050565b6000806008541180156122105750600260048111156121d6576121d5612788565b5b60076000600854815260200190815260200160002060000160009054906101000a900460ff16600481111561220e5761220d612788565b5b105b1561221f576008549050612237565b60086000815461222e90613173565b91905081905590505b90565b6000612265828473ffffffffffffffffffffffffffffffffffffffff1661245390919063ffffffff16565b9050600081511415801561228a57508080602001905181019061228891906137d1565b155b156122cc57826040517f5274afe70000000000000000000000000000000000000000000000000000000081526004016122c3919061276d565b60405180910390fd5b505050565b61234b838473ffffffffffffffffffffffffffffffffffffffff1663a9059cbb85856040516024016123049291906137fe565b604051602081830303815290604052915060e01b6020820180517bffffffffffffffffffffffffffffffffffffffffffffffffffffffff838183161783525050505061223a565b505050565b600654600c60008373ffffffffffffffffffffffffffffffffffffffff1673ffffffffffffffffffffffffffffffffffffffff16815260200190815260200160002054101580156123a5575060055460045410155b15612450576123f981600554600160009054906101000a900473ffffffffffffffffffffffffffffffffffffffff1673ffffffffffffffffffffffffffffffffffffffff166122d19092919063ffffffff16565b7fbf737c87eff4ef74213cb228c9e25ca0c4519947f5fcc4a41b221ba93d76a4258160055460405161242c9291906137fe565b60405180910390a16005546004600082825461244891906130e7565b925050819055505b50565b606061246183836000612469565b905092915050565b6060814710156124b057306040517fcd7860590000000000000000000000000000000000000000000000000000000081526004016124a7919061276d565b60405180910390fd5b6000808573ffffffffffffffffffffffffffffffffffffffff1684866040516124d9919061386e565b60006040518083038185875af1925050503d8060008114612516576040519150601f19603f3d011682016040523d82523d6000602084013e61251b565b606091505b509150915061252b868383612536565b925050509392505050565b60608261254b57612546826125c5565b6125bd565b60008251148015612573575060008473ffffffffffffffffffffffffffffffffffffffff163b145b156125b557836040517f9996b3150000000000000000000000000000000000000000000000000000000081526004016125ac919061276d565b60405180910390fd5b8190506125be565b5b9392505050565b6000815111156125d85780518082602001fd5b6040517f1425ea4200000000000000000000000000000000000000000000000000000000815260040160405180910390fd5b6040518060a001604052806000600481111561262957612628612788565b5b8152602001612636612669565b8152602001612643612669565b81526020016000600381111561265c5761265b612788565b5b8152602001600081525090565b6040518060600160405280600073ffffffffffffffffffffffffffffffffffffffff16815260200160008019168152602001600060038111156126af576126ae612788565b5b81525090565b6000604051905090565b600080fd5b600080fd5b6000819050919050565b6126dc816126c9565b81146126e757600080fd5b50565b6000813590506126f9816126d3565b92915050565b600060208284031215612715576127146126bf565b5b6000612723848285016126ea565b91505092915050565b600073ffffffffffffffffffffffffffffffffffffffff82169050919050565b60006127578261272c565b9050919050565b6127678161274c565b82525050565b6000602082019050612782600083018461275e565b92915050565b7f4e487b7100000000000000000000000000000000000000000000000000000000600052602160045260246000fd5b600581106127c8576127c7612788565b5b50565b60008190506127d9826127b7565b919050565b60006127e9826127cb565b9050919050565b6127f9816127de565b82525050565b6128088161274c565b82525050565b6000819050919050565b6128218161280e565b82525050565b6004811061283857612837612788565b5b50565b600081905061284982612827565b919050565b60006128598261283b565b9050919050565b6128698161284e565b82525050565b60608201600082015161288560008501826127ff565b5060208201516128986020850182612818565b5060408201516128ab6040850182612860565b50505050565b600481106128c2576128c1612788565b5b50565b60008190506128d3826128b1565b919050565b60006128e3826128c5565b9050919050565b6128f3816128d8565b82525050565b612902816126c9565b82525050565b60006101208201905061291e60008301886127f0565b61292b602083018761286f565b612938608083018661286f565b61294560e08301856128ea565b6129536101008301846128f9565b9695505050505050565b6129668161274c565b811461297157600080fd5b50565b6000813590506129838161295d565b92915050565b60006020828403121561299f5761299e6126bf565b5b60006129ad84828501612974565b91505092915050565b60006020820190506129cb60008301846128f9565b92915050565b600481106129de57600080fd5b50565b6000813590506129f0816129d1565b92915050565b600080fd5b600080fd5b6000601f19601f8301169050919050565b7f4e487b7100000000000000000000000000000000000000000000000000000000600052604160045260246000fd5b612a4982612a00565b810181811067ffffffffffffffff82111715612a6857612a67612a11565b5b80604052505050565b6000612a7b6126b5565b9050612a878282612a40565b919050565b600067ffffffffffffffff821115612aa757612aa6612a11565b5b612ab082612a00565b9050602081019050919050565b82818337600083830152505050565b6000612adf612ada84612a8c565b612a71565b905082815260208101848484011115612afb57612afa6129fb565b5b612b06848285612abd565b509392505050565b600082601f830112612b2357612b226129f6565b5b8135612b33848260208601612acc565b91505092915050565b60008060408385031215612b5357612b526126bf565b5b6000612b61858286016129e1565b925050602083013567ffffffffffffffff811115612b8257612b816126c4565b5b612b8e85828601612b0e565b9150509250929050565b612ba18161280e565b82525050565b6000602082019050612bbc6000830184612b98565b92915050565b6000819050919050565b6000612be7612be2612bdd8461272c565b612bc2565b61272c565b9050919050565b6000612bf982612bcc565b9050919050565b6000612c0b82612bee565b9050919050565b612c1b81612c00565b82525050565b6000602082019050612c366000830184612c12565b92915050565b612c45816127de565b82525050565b606082016000820151612c6160008501826127ff565b506020820151612c746020850182612818565b506040820151612c876040850182612860565b50505050565b612c96816128d8565b82525050565b612ca5816126c9565b82525050565b61012082016000820151612cc26000850182612c3c565b506020820151612cd56020850182612c4b565b506040820151612ce86080850182612c4b565b506060820151612cfb60e0850182612c8d565b506080820151612d0f610100850182612c9c565b50505050565b600061012082019050612d2b6000830184612cab565b92915050565b600081519050919050565b600082825260208201905092915050565b6000819050602082019050919050565b6000612d6983836127ff565b60208301905092915050565b6000602082019050919050565b6000612d8d82612d31565b612d978185612d3c565b9350612da283612d4d565b8060005b83811015612dd3578151612dba8882612d5d565b9750612dc583612d75565b925050600181019050612da6565b5085935050505092915050565b600081519050919050565b600082825260208201905092915050565b6000819050602082019050919050565b6000612e188383612c9c565b60208301905092915050565b6000602082019050919050565b6000612e3c82612de0565b612e468185612deb565b9350612e5183612dfc565b8060005b83811015612e82578151612e698882612e0c565b9750612e7483612e24565b925050600181019050612e55565b5085935050505092915050565b60006040820190508181036000830152612ea98185612d82565b90508181036020830152612ebd8184612e31565b90509392505050565b600080600060608486031215612edf57612ede6126bf565b5b6000612eed868287016126ea565b9350506020612efe868287016129e1565b925050604084013567ffffffffffffffff811115612f1f57612f1e6126c4565b5b612f2b86828701612b0e565b9150509250925092565b612f3e8161280e565b8114612f4957600080fd5b50565b600081359050612f5b81612f35565b92915050565b600060208284031215612f7757612f766126bf565b5b6000612f8584828501612f4c565b91505092915050565b60008060408385031215612fa557612fa46126bf565b5b6000612fb3858286016126ea565b9250506020612fc4858286016126ea565b9150509250929050565b6000606082019050612fe3600083018461286f565b92915050565b60008160f81b9050919050565b600061300182612fe9565b9050919050565b6130196130148261284e565b612ff6565b82525050565b600081519050919050565b600081905092915050565b60005b83811015613053578082015181840152602081019050613038565b60008484015250505050565b600061306a8261301f565b613074818561302a565b9350613084818560208601613035565b80840191505092915050565b600061309c8285613008565b6001820191506130ac828461305f565b91508190509392505050565b7f4e487b7100000000000000000000000000000000000000000000000000000000600052601160045260246000fd5b60006130f2826126c9565b91506130fd836126c9565b9250828203905081811115613115576131146130b8565b5b92915050565b7f4e487b7100000000000000000000000000000000000000000000000000000000600052603260045260246000fd5b6000613155826126c9565b915060008203613168576131676130b8565b5b600182039050919050565b600061317e826126c9565b91507fffffffffffffffffffffffffffffffffffffffffffffffffffffffffffffffff82036131b0576131af6130b8565b5b600182019050919050565b6000815190506131ca816126d3565b92915050565b6000602082840312156131e6576131e56126bf565b5b60006131f4848285016131bb565b91505092915050565b600082825260208201905092915050565b7f496e73756666696369656e742066756e647320746f20706c6179000000000000600082015250565b6000613244601a836131fd565b915061324f8261320e565b602082019050919050565b6000602082019050818103600083015261327381613237565b9050919050565b600060408201905061328f600083018561275e565b61329c602083018461275e565b9392505050565b7f496e73756666696369656e7420616c6c6f77616e636500000000000000000000600082015250565b60006132d96016836131fd565b91506132e4826132a3565b602082019050919050565b60006020820190508181036000830152613308816132cc565b9050919050565b7f496e76616c6964206d6f76652068617368000000000000000000000000000000600082015250565b60006133456011836131fd565b91506133508261330f565b602082019050919050565b6000602082019050818103600083015261337481613338565b9050919050565b6000613386826126c9565b9150613391836126c9565b925082820261339f816126c9565b915082820484148315176133b6576133b56130b8565b5b5092915050565b7f4e487b7100000000000000000000000000000000000000000000000000000000600052601260045260246000fd5b60006133f7826126c9565b9150613402836126c9565b925082613412576134116133bd565b5b828204905092915050565b6000613428826126c9565b9150613433836126c9565b925082820190508082111561344b5761344a6130b8565b5b92915050565b6000608082019050613466600083018761275e565b61347360208301866128f9565b61348060408301856128f9565b61348d60608301846128f9565b95945050505050565b7f4e6f7420696e2072657665616c20706861736500000000000000000000000000600082015250565b60006134cc6013836131fd565b91506134d782613496565b602082019050919050565b600060208201905081810360008301526134fb816134bf565b9050919050565b7f496e76616c6964206d6f76650000000000000000000000000000000000000000600082015250565b6000613538600c836131fd565b915061354382613502565b602082019050919050565b600060208201905081810360008301526135678161352b565b9050919050565b7f496e76616c696420737461746500000000000000000000000000000000000000600082015250565b60006135a4600d836131fd565b91506135af8261356e565b602082019050919050565b600060208201905081810360008301526135d381613597565b9050919050565b7f48617368206d69736d6174636800000000000000000000000000000000000000600082015250565b6000613610600d836131fd565b915061361b826135da565b602082019050919050565b6000602082019050818103600083015261363f81613603565b9050919050565b600060408201905061365b60008301856128f9565b61366860208301846128ea565b9392505050565b7f416c726561647920706c61796564000000000000000000000000000000000000600082015250565b60006136a5600e836131fd565b91506136b08261366f565b602082019050919050565b600060208201905081810360008301526136d481613698565b9050919050565b7f506c6179657220616c726561647920706c617965640000000000000000000000600082015250565b60006137116015836131fd565b915061371c826136db565b602082019050919050565b6000602082019050818103600083015261374081613704565b9050919050565b600060208201905061375c60008301846127f0565b92915050565b6000606082019050613777600083018661275e565b613784602083018561275e565b61379160408301846128f9565b949350505050565b60008115159050919050565b6137ae81613799565b81146137b957600080fd5b50565b6000815190506137cb816137a5565b92915050565b6000602082840312156137e7576137e66126bf565b5b60006137f5848285016137bc565b91505092915050565b6000604082019050613813600083018561275e565b61382060208301846128f9565b9392505050565b600081519050919050565b600081905092915050565b600061384882613827565b6138528185613832565b9350613862818560208601613035565b80840191505092915050565b600061387a828461383d565b91508190509291505056fea2646970667358221220c38cd40e0e1563682c8fe8b88094e2ff20bf5bdf43bd8a1c47e0a4bdd08b4eba64736f6c63430008140033",
  "linkReferences": {},
  "deployedLinkReferences": {}
}